{
  "address": "0x8a2d422A7840dc2BF289b71801bbed50493D8c51",
  "abi": [
    {
      "inputs": [
        {
          "internalType": "address",
          "name": "_usdtToken",
          "type": "address"
        },
        {
          "internalType": "address",
          "name": "admin",
          "type": "address"
        }
      ],
      "stateMutability": "nonpayable",
      "type": "constructor"
    },
    {
      "anonymous": false,
      "inputs": [
        {
          "indexed": true,
          "internalType": "uint256",
          "name": "claimId",
          "type": "uint256"
        }
      ],
      "name": "ClaimApproved",
      "type": "event"
    },
    {
      "anonymous": false,
      "inputs": [
        {
          "indexed": true,
          "internalType": "uint256",
          "name": "claimId",
          "type": "uint256"
        },
        {
          "indexed": true,
          "internalType": "address",
          "name": "user",
          "type": "address"
        },
        {
          "indexed": false,
          "internalType": "uint256",
          "name": "amount",
          "type": "uint256"
        }
      ],
      "name": "ClaimExecuted",
      "type": "event"
    },
    {
      "anonymous": false,
      "inputs": [
        {
          "indexed": true,
          "internalType": "uint256",
          "name": "claimId",
          "type": "uint256"
        },
        {
          "indexed": true,
          "internalType": "uint256",
          "name": "taskId",
          "type": "uint256"
        },
        {
          "indexed": true,
          "internalType": "address",
          "name": "user",
          "type": "address"
        },
        {
          "indexed": false,
          "internalType": "uint256",
          "name": "amount",
          "type": "uint256"
        }
      ],
      "name": "ClaimSubmitted",
      "type": "event"
    },
    {
      "anonymous": false,
      "inputs": [
        {
          "indexed": false,
          "internalType": "address",
          "name": "account",
          "type": "address"
        }
      ],
      "name": "Paused",
      "type": "event"
    },
    {
      "anonymous": false,
      "inputs": [
        {
          "indexed": true,
          "internalType": "bytes32",
          "name": "role",
          "type": "bytes32"
        },
        {
          "indexed": true,
          "internalType": "bytes32",
          "name": "previousAdminRole",
          "type": "bytes32"
        },
        {
          "indexed": true,
          "internalType": "bytes32",
          "name": "newAdminRole",
          "type": "bytes32"
        }
      ],
      "name": "RoleAdminChanged",
      "type": "event"
    },
    {
      "anonymous": false,
      "inputs": [
        {
          "indexed": true,
          "internalType": "bytes32",
          "name": "role",
          "type": "bytes32"
        },
        {
          "indexed": true,
          "internalType": "address",
          "name": "account",
          "type": "address"
        },
        {
          "indexed": true,
          "internalType": "address",
          "name": "sender",
          "type": "address"
        }
      ],
      "name": "RoleGranted",
      "type": "event"
    },
    {
      "anonymous": false,
      "inputs": [
        {
          "indexed": true,
          "internalType": "bytes32",
          "name": "role",
          "type": "bytes32"
        },
        {
          "indexed": true,
          "internalType": "address",
          "name": "account",
          "type": "address"
        },
        {
          "indexed": true,
          "internalType": "address",
          "name": "sender",
          "type": "address"
        }
      ],
      "name": "RoleRevoked",
      "type": "event"
    },
    {
      "anonymous": false,
      "inputs": [
        {
          "indexed": true,
          "internalType": "uint256",
          "name": "taskId",
          "type": "uint256"
        },
        {
          "indexed": true,
          "internalType": "address",
          "name": "creator",
          "type": "address"
        },
        {
          "indexed": false,
          "internalType": "uint256",
          "name": "totalReward",
          "type": "uint256"
        }
      ],
      "name": "TaskCreated",
      "type": "event"
    },
    {
      "anonymous": false,
      "inputs": [
        {
          "indexed": false,
          "internalType": "uint256",
          "name": "taskId",
          "type": "uint256"
        },
        {
          "indexed": false,
          "internalType": "uint256",
          "name": "totalReward",
          "type": "uint256"
        },
        {
          "indexed": false,
          "internalType": "uint256",
          "name": "claimedAmount",
          "type": "uint256"
        },
        {
          "indexed": false,
          "internalType": "uint256",
          "name": "remainingReward",
          "type": "uint256"
        }
      ],
      "name": "TaskDebug",
      "type": "event"
    },
    {
      "anonymous": false,
      "inputs": [
        {
          "indexed": true,
          "internalType": "uint256",
          "name": "taskId",
          "type": "uint256"
        },
        {
          "indexed": true,
          "internalType": "address",
          "name": "creator",
          "type": "address"
        },
        {
          "indexed": false,
          "internalType": "uint256",
          "name": "amount",
          "type": "uint256"
        }
      ],
      "name": "TaskWithdrawn",
      "type": "event"
    },
    {
      "anonymous": false,
      "inputs": [
        {
          "indexed": true,
          "internalType": "address",
          "name": "to",
          "type": "address"
        },
        {
          "indexed": false,
          "internalType": "uint256",
          "name": "amount",
          "type": "uint256"
        }
      ],
      "name": "TokensWithdrawn",
      "type": "event"
    },
    {
      "anonymous": false,
      "inputs": [
        {
          "indexed": false,
          "internalType": "address",
          "name": "account",
          "type": "address"
        }
      ],
      "name": "Unpaused",
      "type": "event"
    },
    {
      "inputs": [],
      "name": "ADMIN_ROLE",
      "outputs": [
        {
          "internalType": "bytes32",
          "name": "",
          "type": "bytes32"
        }
      ],
      "stateMutability": "view",
      "type": "function"
    },
    {
      "inputs": [],
      "name": "DEFAULT_ADMIN_ROLE",
      "outputs": [
        {
          "internalType": "bytes32",
          "name": "",
          "type": "bytes32"
        }
      ],
      "stateMutability": "view",
      "type": "function"
    },
    {
      "inputs": [
        {
          "internalType": "uint256",
          "name": "claimId",
          "type": "uint256"
        }
      ],
      "name": "adminExecuteClaim",
      "outputs": [],
      "stateMutability": "nonpayable",
      "type": "function"
    },
    {
      "inputs": [
        {
          "internalType": "uint256",
          "name": "",
          "type": "uint256"
        }
      ],
      "name": "claimedRewards",
      "outputs": [
        {
          "internalType": "uint256",
          "name": "",
          "type": "uint256"
        }
      ],
      "stateMutability": "view",
      "type": "function"
    },
    {
      "inputs": [
        {
          "internalType": "uint256",
          "name": "",
          "type": "uint256"
        }
      ],
      "name": "claims",
      "outputs": [
        {
          "internalType": "address",
          "name": "user",
          "type": "address"
        },
        {
          "internalType": "uint256",
          "name": "taskId",
          "type": "uint256"
        },
        {
          "internalType": "uint256",
          "name": "amount",
          "type": "uint256"
        },
        {
          "internalType": "bool",
          "name": "approved",
          "type": "bool"
        },
        {
          "internalType": "bool",
          "name": "executed",
          "type": "bool"
        }
      ],
      "stateMutability": "view",
      "type": "function"
    },
    {
      "inputs": [
        {
          "internalType": "uint256",
          "name": "",
          "type": "uint256"
        }
      ],
      "name": "completedTaskCount",
      "outputs": [
        {
          "internalType": "uint256",
          "name": "",
          "type": "uint256"
        }
      ],
      "stateMutability": "view",
      "type": "function"
    },
    {
      "inputs": [
        {
          "internalType": "uint256",
          "name": "totalReward",
          "type": "uint256"
        },
        {
          "internalType": "uint256",
          "name": "_totalParticipants",
          "type": "uint256"
        }
      ],
      "name": "createTask",
      "outputs": [
        {
          "internalType": "uint256",
          "name": "",
          "type": "uint256"
        }
      ],
      "stateMutability": "nonpayable",
      "type": "function"
    },
    {
      "inputs": [
        {
          "internalType": "uint256",
          "name": "claimId",
          "type": "uint256"
        }
      ],
      "name": "executeClaim",
      "outputs": [],
      "stateMutability": "nonpayable",
      "type": "function"
    },
    {
      "inputs": [
        {
          "internalType": "uint256",
          "name": "taskId",
          "type": "uint256"
        }
      ],
      "name": "getClaimedRewards",
      "outputs": [
        {
          "internalType": "uint256",
          "name": "",
          "type": "uint256"
        }
      ],
      "stateMutability": "view",
      "type": "function"
    },
    {
      "inputs": [
        {
          "internalType": "bytes32",
          "name": "role",
          "type": "bytes32"
        }
      ],
      "name": "getRoleAdmin",
      "outputs": [
        {
          "internalType": "bytes32",
          "name": "",
          "type": "bytes32"
        }
      ],
      "stateMutability": "view",
      "type": "function"
    },
    {
      "inputs": [
        {
          "internalType": "bytes32",
          "name": "role",
          "type": "bytes32"
        },
        {
          "internalType": "address",
          "name": "account",
          "type": "address"
        }
      ],
      "name": "grantRole",
      "outputs": [],
      "stateMutability": "nonpayable",
      "type": "function"
    },
    {
      "inputs": [
        {
          "internalType": "bytes32",
          "name": "role",
          "type": "bytes32"
        },
        {
          "internalType": "address",
          "name": "account",
          "type": "address"
        }
      ],
      "name": "hasRole",
      "outputs": [
        {
          "internalType": "bool",
          "name": "",
          "type": "bool"
        }
      ],
      "stateMutability": "view",
      "type": "function"
    },
    {
      "inputs": [
        {
          "internalType": "uint256",
          "name": "taskId",
          "type": "uint256"
        }
      ],
      "name": "markTaskCompleted",
      "outputs": [],
      "stateMutability": "nonpayable",
      "type": "function"
    },
    {
      "inputs": [],
      "name": "nextClaimId",
      "outputs": [
        {
          "internalType": "uint256",
          "name": "",
          "type": "uint256"
        }
      ],
      "stateMutability": "view",
      "type": "function"
    },
    {
      "inputs": [],
      "name": "nextTaskId",
      "outputs": [
        {
          "internalType": "uint256",
          "name": "",
          "type": "uint256"
        }
      ],
      "stateMutability": "view",
      "type": "function"
    },
    {
      "inputs": [],
      "name": "pause",
      "outputs": [],
      "stateMutability": "nonpayable",
      "type": "function"
    },
    {
      "inputs": [],
      "name": "paused",
      "outputs": [
        {
          "internalType": "bool",
          "name": "",
          "type": "bool"
        }
      ],
      "stateMutability": "view",
      "type": "function"
    },
    {
      "inputs": [
        {
          "internalType": "bytes32",
          "name": "role",
          "type": "bytes32"
        },
        {
          "internalType": "address",
          "name": "account",
          "type": "address"
        }
      ],
      "name": "renounceRole",
      "outputs": [],
      "stateMutability": "nonpayable",
      "type": "function"
    },
    {
      "inputs": [
        {
          "internalType": "bytes32",
          "name": "role",
          "type": "bytes32"
        },
        {
          "internalType": "address",
          "name": "account",
          "type": "address"
        }
      ],
      "name": "revokeRole",
      "outputs": [],
      "stateMutability": "nonpayable",
      "type": "function"
    },
    {
      "inputs": [
        {
          "internalType": "uint256",
          "name": "taskId",
          "type": "uint256"
        },
        {
          "internalType": "uint256",
          "name": "amount",
          "type": "uint256"
        }
      ],
      "name": "submitClaim",
      "outputs": [
        {
          "internalType": "uint256",
          "name": "",
          "type": "uint256"
        }
      ],
      "stateMutability": "nonpayable",
      "type": "function"
    },
    {
      "inputs": [
        {
          "internalType": "bytes4",
          "name": "interfaceId",
          "type": "bytes4"
        }
      ],
      "name": "supportsInterface",
      "outputs": [
        {
          "internalType": "bool",
          "name": "",
          "type": "bool"
        }
      ],
      "stateMutability": "view",
      "type": "function"
    },
    {
      "inputs": [
        {
          "internalType": "uint256",
          "name": "",
          "type": "uint256"
        }
      ],
      "name": "tasks",
      "outputs": [
        {
          "internalType": "address",
          "name": "creator",
          "type": "address"
        },
        {
          "internalType": "uint256",
          "name": "totalReward",
          "type": "uint256"
        },
        {
          "internalType": "uint256",
          "name": "remainingReward",
          "type": "uint256"
        },
        {
          "internalType": "uint256",
          "name": "totalParticipants",
          "type": "uint256"
        },
        {
          "internalType": "bool",
          "name": "isActive",
          "type": "bool"
        }
      ],
      "stateMutability": "view",
      "type": "function"
    },
    {
      "inputs": [],
      "name": "unpause",
      "outputs": [],
      "stateMutability": "nonpayable",
      "type": "function"
    },
    {
      "inputs": [],
      "name": "usdtToken",
      "outputs": [
        {
          "internalType": "contract IERC20",
          "name": "",
          "type": "address"
        }
      ],
      "stateMutability": "view",
      "type": "function"
    },
    {
      "inputs": [
        {
          "internalType": "uint256",
          "name": "taskId",
          "type": "uint256"
        }
      ],
      "name": "withdrawTaskRemaining",
      "outputs": [],
      "stateMutability": "nonpayable",
      "type": "function"
    },
    {
      "inputs": [
        {
          "internalType": "address",
          "name": "to",
          "type": "address"
        },
        {
          "internalType": "uint256",
          "name": "amount",
          "type": "uint256"
        }
      ],
      "name": "withdrawTokens",
      "outputs": [],
      "stateMutability": "nonpayable",
      "type": "function"
    }
  ],
  "transactionHash": "0x22a87d51fb4881c2468a940b212113ae8031ae13f2bd24c695c8766381ca230f",
  "args": [
    "0xaA8E23Fb1079EA71e0a56F48a2aA51851D8433D0",
    "0xB1CD9f3c65496ddD185F81d5E5b0BC9004535521"
  ],
  "numDeployments": 17,
  "solcInputHash": "d4609375a93c69b12c8997a61bec1767",
  "bytecode": "0x60a06040523480156200001157600080fd5b5060405162001e5238038062001e5283398101604081905262000034916200014e565b600180556002805460ff191690556001600160a01b0382166080526200005c60008262000090565b620000887fa49807205ce4d355092ef5a8a18f56e8913cf4a201fbe287825b095693c217758262000090565b505062000186565b6000828152602081815260408083206001600160a01b038516845290915290205460ff166200012d576000828152602081815260408083206001600160a01b03851684529091529020805460ff19166001179055620000ec3390565b6001600160a01b0316816001600160a01b0316837f2f8788117e7eff1d82e926ec794901d17c78024a50270940304540a733656f0d60405160405180910390a45b5050565b80516001600160a01b03811681146200014957600080fd5b919050565b600080604083850312156200016257600080fd5b6200016d8362000131565b91506200017d6020840162000131565b90509250929050565b608051611c86620001cc6000396000818161042b015281816106bd0152818161079c01528181610a8901528181610ebc0152818161108a01526113d80152611c866000f3fe608060405234801561001057600080fd5b506004361061018d5760003560e01c80638d977672116100de578063a6e6069e11610097578063d547741f11610071578063d547741f14610465578063e75b237814610478578063fc58b54a1461048b578063fdc3d8d71461049e57600080fd5b8063a6e6069e14610392578063a888c2cd146103a5578063a98ad46c1461042657600080fd5b80638d977672146102bc578063916750631461033b57806391d148541461034e5780639ec2618d14610361578063a0021cf114610381578063a217fddf1461038a57600080fd5b806336568abe1161014b5780635c975abb116101255780635c975abb1461027457806375b238fc1461027f5780637c33bd70146102945780638456cb59146102b457600080fd5b806336568abe146102465780633f4ba83a146102595780635021934d1461026157600080fd5b80620b2bda1461019257806301ffc9a7146101a757806306b091f9146101cf57806320281a98146101e2578063248a9ca3146102105780632f2ff15d14610233575b600080fd5b6101a56101a036600461192f565b6104a7565b005b6101ba6101b5366004611948565b6105c8565b60405190151581526020015b60405180910390f35b6101a56101dd36600461198e565b6105ff565b6102026101f036600461192f565b60056020526000908152604090205481565b6040519081526020016101c6565b61020261021e36600461192f565b60009081526020819052604090206001015490565b6101a56102413660046119b8565b610876565b6101a56102543660046119b8565b61089b565b6101a5610919565b6101a561026f36600461192f565b61093c565b60025460ff166101ba565b610202600080516020611c3183398151915281565b6102026102a236600461192f565b60009081526005602052604090205490565b6101a5610b5d565b6103076102ca36600461192f565b6003602081905260009182526040909120805460018201546002830154938301546004909301546001600160a01b03909216939092909160ff1685565b604080516001600160a01b03909616865260208601949094529284019190915260608301521515608082015260a0016101c6565b6102026103493660046119e4565b610b7d565b6101ba61035c3660046119b8565b610cf2565b61020261036f36600461192f565b60066020526000908152604090205481565b61020260085481565b610202600081565b6101a56103a036600461192f565b610d1b565b6103f06103b336600461192f565b60046020526000908152604090208054600182015460028301546003909301546001600160a01b0390921692909160ff8082169161010090041685565b604080516001600160a01b039096168652602086019490945292840191909152151560608301521515608082015260a0016101c6565b61044d7f000000000000000000000000000000000000000000000000000000000000000081565b6040516001600160a01b0390911681526020016101c6565b6101a56104733660046119b8565b610f99565b6102026104863660046119e4565b610fbe565b6101a561049936600461192f565b6111f6565b61020260075481565b6000818152600360205260409020600481015460ff166104e25760405162461bcd60e51b81526004016104d990611a06565b60405180910390fd5b80546001600160a01b031633146105495760405162461bcd60e51b815260206004820152602560248201527f4f6e6c79207461736b2063726561746f722063616e206d61726b20636f6d706c60448201526432ba34b7b760d91b60648201526084016104d9565b6003810154600083815260066020526040902054106105a05760405162461bcd60e51b8152602060048201526013602482015272105b1b081d185cdadcc818dbdb5c1b195d1959606a1b60448201526064016104d9565b60008281526006602052604081208054600192906105bf908490611a45565b90915550505050565b60006001600160e01b03198216637965db0b60e01b14806105f957506301ffc9a760e01b6001600160e01b03198316145b92915050565b600080516020611c31833981519152610617816114b5565b61061f6114bf565b6001600160a01b0383166106675760405162461bcd60e51b815260206004820152600f60248201526e496e76616c6964206164647265737360881b60448201526064016104d9565b600082116106a85760405162461bcd60e51b815260206004820152600e60248201526d125b9d985b1a5908185b5bdd5b9d60921b60448201526064016104d9565b6040516370a0823160e01b81523060048201527f00000000000000000000000000000000000000000000000000000000000000006001600160a01b0316906370a0823190602401602060405180830381865afa15801561070c573d6000803e3d6000fd5b505050506040513d601f19601f820116820180604052508101906107309190611a58565b8211156107765760405162461bcd60e51b8152602060048201526014602482015273496e73756666696369656e742062616c616e636560601b60448201526064016104d9565b60405163a9059cbb60e01b81526001600160a01b038481166004830152602482018490527f0000000000000000000000000000000000000000000000000000000000000000169063a9059cbb906044016020604051808303816000875af11580156107e5573d6000803e3d6000fd5b505050506040513d601f19601f820116820180604052508101906108099190611a71565b6108255760405162461bcd60e51b81526004016104d990611a93565b826001600160a01b03167f6352c5382c4a4578e712449ca65e83cdb392d045dfcf1cad9615189db2da244b8360405161086091815260200190565b60405180910390a261087160018055565b505050565b600082815260208190526040902060010154610891816114b5565b6108718383611518565b6001600160a01b038116331461090b5760405162461bcd60e51b815260206004820152602f60248201527f416363657373436f6e74726f6c3a2063616e206f6e6c792072656e6f756e636560448201526e103937b632b9903337b91039b2b63360891b60648201526084016104d9565b610915828261159c565b5050565b600080516020611c31833981519152610931816114b5565b610939611601565b50565b6109446114bf565b600081815260036020526040902080546001600160a01b031633146109ab5760405162461bcd60e51b815260206004820152601960248201527f4f6e6c792063726561746f722063616e2077697468647261770000000000000060448201526064016104d9565b600481015460ff166109cf5760405162461bcd60e51b81526004016104d990611a06565b600082815260066020526040812054600383015460018401549192916109f59190611abc565b828460030154610a059190611ade565b610a0f9190611af1565b905060008111610a575760405162461bcd60e51b8152602060048201526013602482015272139bc81c995b585a5b9a5b99c81c995dd85c99606a1b60448201526064016104d9565b600060028401556004808401805460ff1916905560405163a9059cbb60e01b81523391810191909152602481018290527f00000000000000000000000000000000000000000000000000000000000000006001600160a01b03169063a9059cbb906044016020604051808303816000875af1158015610ada573d6000803e3d6000fd5b505050506040513d601f19601f82011682018060405250810190610afe9190611a71565b610b1a5760405162461bcd60e51b81526004016104d990611a93565b604051818152339085907f855d95973ddc6f11e4011b64c12eb4a2b1610220f6a3cb86d81776d29065f3f49060200160405180910390a350505061093960018055565b600080516020611c31833981519152610b75816114b5565b610939611653565b6000610b87611690565b610b8f6114bf565b8215610c09576000838152600360205260409020600481015460ff168015610bbb575080600201548311155b610c075760405162461bcd60e51b815260206004820152601860248201527f496e76616c696420636c61696d20636f6e646974696f6e73000000000000000060448201526064016104d9565b505b6008805460009182610c1a83611b08565b909155506040805160a0810182523380825260208083018981528385018981526001606086018181526000608088018181528a82526004875290899020975188546001600160a01b0319166001600160a01b03909116178855935191870191909155905160028601555160039094018054915161ffff1990921694151561ff00191694909417610100911515919091021790925591518681529293509091869184917f3a30d1c4069e097873e77443df9683e8de5c7ba3674315b8670a0211e3130195910160405180910390a490506105f960018055565b6000918252602082815260408084206001600160a01b0393909316845291905290205460ff1690565b600080516020611c31833981519152610d33816114b5565b610d3b6114bf565b60008281526004602052604090206003810154610100900460ff1615610d9c5760405162461bcd60e51b815260206004820152601660248201527510db185a5b48185b1c9958591e48195e1958dd5d195960521b60448201526064016104d9565b600181015415610e8e5760018101546000908152600360205260409020600481015460ff16610ddd5760405162461bcd60e51b81526004016104d990611a06565b806002015482600201541115610e355760405162461bcd60e51b815260206004820152601d60248201527f496e73756666696369656e742072656d61696e696e672072657761726400000060448201526064016104d9565b60038201805461ff0019166101001790556002820154600183015460009081526005602052604081208054909190610e6e908490611a45565b909155505060028083015490820154610e879190611ade565b6002909101555b8054600282015460405163a9059cbb60e01b81526001600160a01b03928316600482015260248101919091527f00000000000000000000000000000000000000000000000000000000000000009091169063a9059cbb906044016020604051808303816000875af1158015610f07573d6000803e3d6000fd5b505050506040513d601f19601f82011682018060405250810190610f2b9190611a71565b610f475760405162461bcd60e51b81526004016104d990611a93565b805460028201546040519081526001600160a01b039091169084907f75eef6f906fb79d72532c01c18547c1d9a378995a73c4d1ef680889dd5e96e789060200160405180910390a35061091560018055565b600082815260208190526040902060010154610fb4816114b5565b610871838361159c565b6000610fc8611690565b610fd06114bf565b600083116110185760405162461bcd60e51b8152602060048201526015602482015274125b9d985b1a59081c995dd85c9908185b5bdd5b9d605a1b60448201526064016104d9565b600082116110685760405162461bcd60e51b815260206004820152601a60248201527f496e76616c6964207061727469636970616e747320636f756e7400000000000060448201526064016104d9565b6040516323b872dd60e01b8152336004820152306024820152604481018490527f00000000000000000000000000000000000000000000000000000000000000006001600160a01b0316906323b872dd906064016020604051808303816000875af11580156110db573d6000803e3d6000fd5b505050506040513d601f19601f820116820180604052508101906110ff9190611a71565b61111b5760405162461bcd60e51b81526004016104d990611a93565b600780546000918261112c83611b08565b909155506040805160a0810182523380825260208083018981528385018a8152606085018a815260016080870181815260008a81526003808852908a9020985189546001600160a01b0319166001600160a01b03909116178955945191880191909155915160028701555191850191909155516004909301805460ff1916931515939093179092559151878152929350909183917f6cf53aa7292e664152c2ea948c3b3c95d4b05c36daeb2626d0293473c4a4a153910160405180910390a390506105f960018055565b6111fe6114bf565b600081815260046020526040902080546001600160a01b031633146112655760405162461bcd60e51b815260206004820152601e60248201527f4f6e6c7920636c61696d2063726561746f722063616e2065786563757465000060448201526064016104d9565b6003810154610100900460ff16156112b85760405162461bcd60e51b815260206004820152601660248201527510db185a5b48185b1c9958591e48195e1958dd5d195960521b60448201526064016104d9565b6001810154156113aa5760018101546000908152600360205260409020600481015460ff166112f95760405162461bcd60e51b81526004016104d990611a06565b8060020154826002015411156113515760405162461bcd60e51b815260206004820152601d60248201527f496e73756666696369656e742072656d61696e696e672072657761726400000060448201526064016104d9565b60038201805461ff001916610100179055600282015460018301546000908152600560205260408120805490919061138a908490611a45565b9091555050600280830154908201546113a39190611ade565b6002909101555b8054600282015460405163a9059cbb60e01b81526001600160a01b03928316600482015260248101919091527f00000000000000000000000000000000000000000000000000000000000000009091169063a9059cbb906044016020604051808303816000875af1158015611423573d6000803e3d6000fd5b505050506040513d601f19601f820116820180604052508101906114479190611a71565b6114635760405162461bcd60e51b81526004016104d990611a93565b805460028201546040519081526001600160a01b039091169083907f75eef6f906fb79d72532c01c18547c1d9a378995a73c4d1ef680889dd5e96e789060200160405180910390a35061093960018055565b61093981336116d8565b6002600154036115115760405162461bcd60e51b815260206004820152601f60248201527f5265656e7472616e637947756172643a207265656e7472616e742063616c6c0060448201526064016104d9565b6002600155565b6115228282610cf2565b610915576000828152602081815260408083206001600160a01b03851684529091529020805460ff191660011790556115583390565b6001600160a01b0316816001600160a01b0316837f2f8788117e7eff1d82e926ec794901d17c78024a50270940304540a733656f0d60405160405180910390a45050565b6115a68282610cf2565b15610915576000828152602081815260408083206001600160a01b0385168085529252808320805460ff1916905551339285917ff6391f5c32d9c69d2a47ea670b442974b53935d1edc7fd64eb21e047a839171b9190a45050565b611609611731565b6002805460ff191690557f5db9ee0a495bf2e6ff9c91a7834c1ba4fdd244a5e8aa4e537bd38aeae4b073aa335b6040516001600160a01b03909116815260200160405180910390a1565b61165b611690565b6002805460ff191660011790557f62e78cea01bee320cd4e420270b5ea74000d11b0c9f74754ebdbfc544b05a2586116363390565b60025460ff16156116d65760405162461bcd60e51b815260206004820152601060248201526f14185d5cd8589b194e881c185d5cd95960821b60448201526064016104d9565b565b6116e28282610cf2565b610915576116ef8161177a565b6116fa83602061178c565b60405160200161170b929190611b45565b60408051601f198184030181529082905262461bcd60e51b82526104d991600401611bba565b60025460ff166116d65760405162461bcd60e51b815260206004820152601460248201527314185d5cd8589b194e881b9bdd081c185d5cd95960621b60448201526064016104d9565b60606105f96001600160a01b03831660145b6060600061179b836002611af1565b6117a6906002611a45565b67ffffffffffffffff8111156117be576117be611bed565b6040519080825280601f01601f1916602001820160405280156117e8576020820181803683370190505b509050600360fc1b8160008151811061180357611803611c03565b60200101906001600160f81b031916908160001a905350600f60fb1b8160018151811061183257611832611c03565b60200101906001600160f81b031916908160001a9053506000611856846002611af1565b611861906001611a45565b90505b60018111156118d9576f181899199a1a9b1b9c1cb0b131b232b360811b85600f166010811061189557611895611c03565b1a60f81b8282815181106118ab576118ab611c03565b60200101906001600160f81b031916908160001a90535060049490941c936118d281611c19565b9050611864565b5083156119285760405162461bcd60e51b815260206004820181905260248201527f537472696e67733a20686578206c656e67746820696e73756666696369656e7460448201526064016104d9565b9392505050565b60006020828403121561194157600080fd5b5035919050565b60006020828403121561195a57600080fd5b81356001600160e01b03198116811461192857600080fd5b80356001600160a01b038116811461198957600080fd5b919050565b600080604083850312156119a157600080fd5b6119aa83611972565b946020939093013593505050565b600080604083850312156119cb57600080fd5b823591506119db60208401611972565b90509250929050565b600080604083850312156119f757600080fd5b50508035926020909101359150565b6020808252600f908201526e5461736b206e6f742061637469766560881b604082015260600190565b634e487b7160e01b600052601160045260246000fd5b808201808211156105f9576105f9611a2f565b600060208284031215611a6a57600080fd5b5051919050565b600060208284031215611a8357600080fd5b8151801515811461192857600080fd5b6020808252600f908201526e151c985b9cd9995c8819985a5b1959608a1b604082015260600190565b600082611ad957634e487b7160e01b600052601260045260246000fd5b500490565b818103818111156105f9576105f9611a2f565b80820281158282048414176105f9576105f9611a2f565b600060018201611b1a57611b1a611a2f565b5060010190565b60005b83811015611b3c578181015183820152602001611b24565b50506000910152565b7f416363657373436f6e74726f6c3a206163636f756e7420000000000000000000815260008351611b7d816017850160208801611b21565b7001034b99036b4b9b9b4b733903937b6329607d1b6017918401918201528351611bae816028840160208801611b21565b01602801949350505050565b6020815260008251806020840152611bd9816040850160208701611b21565b601f01601f19169190910160400192915050565b634e487b7160e01b600052604160045260246000fd5b634e487b7160e01b600052603260045260246000fd5b600081611c2857611c28611a2f565b50600019019056fea49807205ce4d355092ef5a8a18f56e8913cf4a201fbe287825b095693c21775a2646970667358221220cfa0f52442c3aba4bdc13d7a639053ee228d7287256203f967d13b524663d63e64736f6c63430008110033",
  "devdoc": {
    "kind": "dev",
    "methods": {
      "getRoleAdmin(bytes32)": {
        "details": "Returns the admin role that controls `role`. See {grantRole} and {revokeRole}. To change a role's admin, use {_setRoleAdmin}."
      },
      "grantRole(bytes32,address)": {
        "details": "Grants `role` to `account`. If `account` had not been already granted `role`, emits a {RoleGranted} event. Requirements: - the caller must have ``role``'s admin role. May emit a {RoleGranted} event."
      },
      "hasRole(bytes32,address)": {
        "details": "Returns `true` if `account` has been granted `role`."
      },
      "paused()": {
        "details": "Returns true if the contract is paused, and false otherwise."
      },
      "renounceRole(bytes32,address)": {
        "details": "Revokes `role` from the calling account. Roles are often managed via {grantRole} and {revokeRole}: this function's purpose is to provide a mechanism for accounts to lose their privileges if they are compromised (such as when a trusted device is misplaced). If the calling account had been revoked `role`, emits a {RoleRevoked} event. Requirements: - the caller must be `account`. May emit a {RoleRevoked} event."
      },
      "revokeRole(bytes32,address)": {
        "details": "Revokes `role` from `account`. If `account` had been granted `role`, emits a {RoleRevoked} event. Requirements: - the caller must have ``role``'s admin role. May emit a {RoleRevoked} event."
      },
      "supportsInterface(bytes4)": {
        "details": "See {IERC165-supportsInterface}."
      }
    },
    "version": 1
  },
  "userdoc": {
    "kind": "user",
    "methods": {},
    "version": 1
  },
  "storageLayout": {
    "storage": [
      {
        "astId": 24,
        "contract": "contracts/TaskReward.sol:TaskReward",
        "label": "_roles",
        "offset": 0,
        "slot": "0",
        "type": "t_mapping(t_bytes32,t_struct(RoleData)19_storage)"
      },
      {
        "astId": 507,
        "contract": "contracts/TaskReward.sol:TaskReward",
        "label": "_status",
        "offset": 0,
        "slot": "1",
        "type": "t_uint256"
      },
      {
        "astId": 406,
        "contract": "contracts/TaskReward.sol:TaskReward",
        "label": "_paused",
        "offset": 0,
        "slot": "2",
        "type": "t_bool"
      },
      {
        "astId": 1952,
        "contract": "contracts/TaskReward.sol:TaskReward",
        "label": "tasks",
        "offset": 0,
        "slot": "3",
        "type": "t_mapping(t_uint256,t_struct(Task)1936_storage)"
      },
      {
        "astId": 1957,
        "contract": "contracts/TaskReward.sol:TaskReward",
        "label": "claims",
        "offset": 0,
        "slot": "4",
        "type": "t_mapping(t_uint256,t_struct(Claim)1947_storage)"
      },
      {
        "astId": 1961,
        "contract": "contracts/TaskReward.sol:TaskReward",
        "label": "claimedRewards",
        "offset": 0,
        "slot": "5",
        "type": "t_mapping(t_uint256,t_uint256)"
      },
      {
        "astId": 1965,
        "contract": "contracts/TaskReward.sol:TaskReward",
        "label": "completedTaskCount",
        "offset": 0,
        "slot": "6",
        "type": "t_mapping(t_uint256,t_uint256)"
      },
      {
        "astId": 1967,
        "contract": "contracts/TaskReward.sol:TaskReward",
        "label": "nextTaskId",
        "offset": 0,
        "slot": "7",
        "type": "t_uint256"
      },
      {
        "astId": 1969,
        "contract": "contracts/TaskReward.sol:TaskReward",
        "label": "nextClaimId",
        "offset": 0,
        "slot": "8",
        "type": "t_uint256"
      }
    ],
    "types": {
      "t_address": {
        "encoding": "inplace",
        "label": "address",
        "numberOfBytes": "20"
      },
      "t_bool": {
        "encoding": "inplace",
        "label": "bool",
        "numberOfBytes": "1"
      },
      "t_bytes32": {
        "encoding": "inplace",
        "label": "bytes32",
        "numberOfBytes": "32"
      },
      "t_mapping(t_address,t_bool)": {
        "encoding": "mapping",
        "key": "t_address",
        "label": "mapping(address => bool)",
        "numberOfBytes": "32",
        "value": "t_bool"
      },
      "t_mapping(t_bytes32,t_struct(RoleData)19_storage)": {
        "encoding": "mapping",
        "key": "t_bytes32",
        "label": "mapping(bytes32 => struct AccessControl.RoleData)",
        "numberOfBytes": "32",
        "value": "t_struct(RoleData)19_storage"
      },
      "t_mapping(t_uint256,t_struct(Claim)1947_storage)": {
        "encoding": "mapping",
        "key": "t_uint256",
        "label": "mapping(uint256 => struct TaskReward.Claim)",
        "numberOfBytes": "32",
        "value": "t_struct(Claim)1947_storage"
      },
      "t_mapping(t_uint256,t_struct(Task)1936_storage)": {
        "encoding": "mapping",
        "key": "t_uint256",
        "label": "mapping(uint256 => struct TaskReward.Task)",
        "numberOfBytes": "32",
        "value": "t_struct(Task)1936_storage"
      },
      "t_mapping(t_uint256,t_uint256)": {
        "encoding": "mapping",
        "key": "t_uint256",
        "label": "mapping(uint256 => uint256)",
        "numberOfBytes": "32",
        "value": "t_uint256"
      },
      "t_struct(Claim)1947_storage": {
        "encoding": "inplace",
        "label": "struct TaskReward.Claim",
        "members": [
          {
            "astId": 1938,
            "contract": "contracts/TaskReward.sol:TaskReward",
            "label": "user",
            "offset": 0,
            "slot": "0",
            "type": "t_address"
          },
          {
            "astId": 1940,
            "contract": "contracts/TaskReward.sol:TaskReward",
            "label": "taskId",
            "offset": 0,
            "slot": "1",
            "type": "t_uint256"
          },
          {
            "astId": 1942,
            "contract": "contracts/TaskReward.sol:TaskReward",
            "label": "amount",
            "offset": 0,
            "slot": "2",
            "type": "t_uint256"
          },
          {
            "astId": 1944,
            "contract": "contracts/TaskReward.sol:TaskReward",
            "label": "approved",
            "offset": 0,
            "slot": "3",
            "type": "t_bool"
          },
          {
            "astId": 1946,
            "contract": "contracts/TaskReward.sol:TaskReward",
            "label": "executed",
            "offset": 1,
            "slot": "3",
            "type": "t_bool"
          }
        ],
        "numberOfBytes": "128"
      },
      "t_struct(RoleData)19_storage": {
        "encoding": "inplace",
        "label": "struct AccessControl.RoleData",
        "members": [
          {
            "astId": 16,
            "contract": "contracts/TaskReward.sol:TaskReward",
            "label": "members",
            "offset": 0,
            "slot": "0",
            "type": "t_mapping(t_address,t_bool)"
          },
          {
            "astId": 18,
            "contract": "contracts/TaskReward.sol:TaskReward",
            "label": "adminRole",
            "offset": 0,
            "slot": "1",
            "type": "t_bytes32"
          }
        ],
        "numberOfBytes": "64"
      },
      "t_struct(Task)1936_storage": {
        "encoding": "inplace",
        "label": "struct TaskReward.Task",
        "members": [
          {
            "astId": 1927,
            "contract": "contracts/TaskReward.sol:TaskReward",
            "label": "creator",
            "offset": 0,
            "slot": "0",
            "type": "t_address"
          },
          {
            "astId": 1929,
            "contract": "contracts/TaskReward.sol:TaskReward",
            "label": "totalReward",
            "offset": 0,
            "slot": "1",
            "type": "t_uint256"
          },
          {
            "astId": 1931,
            "contract": "contracts/TaskReward.sol:TaskReward",
            "label": "remainingReward",
            "offset": 0,
            "slot": "2",
            "type": "t_uint256"
          },
          {
            "astId": 1933,
            "contract": "contracts/TaskReward.sol:TaskReward",
            "label": "totalParticipants",
            "offset": 0,
            "slot": "3",
            "type": "t_uint256"
          },
          {
            "astId": 1935,
            "contract": "contracts/TaskReward.sol:TaskReward",
            "label": "isActive",
            "offset": 0,
            "slot": "4",
            "type": "t_bool"
          }
        ],
        "numberOfBytes": "160"
      },
      "t_uint256": {
        "encoding": "inplace",
        "label": "uint256",
        "numberOfBytes": "32"
      }
    }
  }
}