{
  "address": "0x8eA09912f59Ecf518885Eec106538c75802Dd3fc",
  "abi": [
    {
      "inputs": [
        {
          "internalType": "address",
          "name": "_usdtToken",
          "type": "address"
        },
        {
          "internalType": "address",
          "name": "admin",
          "type": "address"
        }
      ],
      "stateMutability": "nonpayable",
      "type": "constructor"
    },
    {
      "anonymous": false,
      "inputs": [
        {
          "indexed": true,
          "internalType": "uint256",
          "name": "claimId",
          "type": "uint256"
        }
      ],
      "name": "ClaimApproved",
      "type": "event"
    },
    {
      "anonymous": false,
      "inputs": [
        {
          "indexed": true,
          "internalType": "uint256",
          "name": "claimId",
          "type": "uint256"
        },
        {
          "indexed": true,
          "internalType": "address",
          "name": "user",
          "type": "address"
        },
        {
          "indexed": false,
          "internalType": "uint256",
          "name": "amount",
          "type": "uint256"
        }
      ],
      "name": "ClaimExecuted",
      "type": "event"
    },
    {
      "anonymous": false,
      "inputs": [
        {
          "indexed": true,
          "internalType": "uint256",
          "name": "claimId",
          "type": "uint256"
        },
        {
          "indexed": true,
          "internalType": "uint256",
          "name": "taskId",
          "type": "uint256"
        },
        {
          "indexed": true,
          "internalType": "address",
          "name": "user",
          "type": "address"
        },
        {
          "indexed": false,
          "internalType": "uint256",
          "name": "amount",
          "type": "uint256"
        }
      ],
      "name": "ClaimSubmitted",
      "type": "event"
    },
    {
      "anonymous": false,
      "inputs": [
        {
          "indexed": false,
          "internalType": "address",
          "name": "account",
          "type": "address"
        }
      ],
      "name": "Paused",
      "type": "event"
    },
    {
      "anonymous": false,
      "inputs": [
        {
          "indexed": true,
          "internalType": "bytes32",
          "name": "role",
          "type": "bytes32"
        },
        {
          "indexed": true,
          "internalType": "bytes32",
          "name": "previousAdminRole",
          "type": "bytes32"
        },
        {
          "indexed": true,
          "internalType": "bytes32",
          "name": "newAdminRole",
          "type": "bytes32"
        }
      ],
      "name": "RoleAdminChanged",
      "type": "event"
    },
    {
      "anonymous": false,
      "inputs": [
        {
          "indexed": true,
          "internalType": "bytes32",
          "name": "role",
          "type": "bytes32"
        },
        {
          "indexed": true,
          "internalType": "address",
          "name": "account",
          "type": "address"
        },
        {
          "indexed": true,
          "internalType": "address",
          "name": "sender",
          "type": "address"
        }
      ],
      "name": "RoleGranted",
      "type": "event"
    },
    {
      "anonymous": false,
      "inputs": [
        {
          "indexed": true,
          "internalType": "bytes32",
          "name": "role",
          "type": "bytes32"
        },
        {
          "indexed": true,
          "internalType": "address",
          "name": "account",
          "type": "address"
        },
        {
          "indexed": true,
          "internalType": "address",
          "name": "sender",
          "type": "address"
        }
      ],
      "name": "RoleRevoked",
      "type": "event"
    },
    {
      "anonymous": false,
      "inputs": [
        {
          "indexed": true,
          "internalType": "uint256",
          "name": "taskId",
          "type": "uint256"
        },
        {
          "indexed": true,
          "internalType": "address",
          "name": "creator",
          "type": "address"
        },
        {
          "indexed": false,
          "internalType": "uint256",
          "name": "totalReward",
          "type": "uint256"
        }
      ],
      "name": "TaskCreated",
      "type": "event"
    },
    {
      "anonymous": false,
      "inputs": [
        {
          "indexed": true,
          "internalType": "address",
          "name": "to",
          "type": "address"
        },
        {
          "indexed": false,
          "internalType": "uint256",
          "name": "amount",
          "type": "uint256"
        }
      ],
      "name": "TokensWithdrawn",
      "type": "event"
    },
    {
      "anonymous": false,
      "inputs": [
        {
          "indexed": false,
          "internalType": "address",
          "name": "account",
          "type": "address"
        }
      ],
      "name": "Unpaused",
      "type": "event"
    },
    {
      "inputs": [],
      "name": "ADMIN_ROLE",
      "outputs": [
        {
          "internalType": "bytes32",
          "name": "",
          "type": "bytes32"
        }
      ],
      "stateMutability": "view",
      "type": "function"
    },
    {
      "inputs": [],
      "name": "DEFAULT_ADMIN_ROLE",
      "outputs": [
        {
          "internalType": "bytes32",
          "name": "",
          "type": "bytes32"
        }
      ],
      "stateMutability": "view",
      "type": "function"
    },
    {
      "inputs": [
        {
          "internalType": "uint256",
          "name": "claimId",
          "type": "uint256"
        }
      ],
      "name": "approveClaim",
      "outputs": [],
      "stateMutability": "nonpayable",
      "type": "function"
    },
    {
      "inputs": [
        {
          "internalType": "uint256",
          "name": "",
          "type": "uint256"
        }
      ],
      "name": "claims",
      "outputs": [
        {
          "internalType": "address",
          "name": "user",
          "type": "address"
        },
        {
          "internalType": "uint256",
          "name": "taskId",
          "type": "uint256"
        },
        {
          "internalType": "uint256",
          "name": "amount",
          "type": "uint256"
        },
        {
          "internalType": "bool",
          "name": "approved",
          "type": "bool"
        },
        {
          "internalType": "bool",
          "name": "executed",
          "type": "bool"
        }
      ],
      "stateMutability": "view",
      "type": "function"
    },
    {
      "inputs": [
        {
          "internalType": "uint256",
          "name": "totalReward",
          "type": "uint256"
        }
      ],
      "name": "createTask",
      "outputs": [
        {
          "internalType": "uint256",
          "name": "",
          "type": "uint256"
        }
      ],
      "stateMutability": "nonpayable",
      "type": "function"
    },
    {
      "inputs": [
        {
          "internalType": "uint256",
          "name": "claimId",
          "type": "uint256"
        }
      ],
      "name": "executeClaim",
      "outputs": [],
      "stateMutability": "nonpayable",
      "type": "function"
    },
    {
      "inputs": [
        {
          "internalType": "bytes32",
          "name": "role",
          "type": "bytes32"
        }
      ],
      "name": "getRoleAdmin",
      "outputs": [
        {
          "internalType": "bytes32",
          "name": "",
          "type": "bytes32"
        }
      ],
      "stateMutability": "view",
      "type": "function"
    },
    {
      "inputs": [
        {
          "internalType": "bytes32",
          "name": "role",
          "type": "bytes32"
        },
        {
          "internalType": "address",
          "name": "account",
          "type": "address"
        }
      ],
      "name": "grantRole",
      "outputs": [],
      "stateMutability": "nonpayable",
      "type": "function"
    },
    {
      "inputs": [
        {
          "internalType": "bytes32",
          "name": "role",
          "type": "bytes32"
        },
        {
          "internalType": "address",
          "name": "account",
          "type": "address"
        }
      ],
      "name": "hasRole",
      "outputs": [
        {
          "internalType": "bool",
          "name": "",
          "type": "bool"
        }
      ],
      "stateMutability": "view",
      "type": "function"
    },
    {
      "inputs": [],
      "name": "nextClaimId",
      "outputs": [
        {
          "internalType": "uint256",
          "name": "",
          "type": "uint256"
        }
      ],
      "stateMutability": "view",
      "type": "function"
    },
    {
      "inputs": [],
      "name": "nextTaskId",
      "outputs": [
        {
          "internalType": "uint256",
          "name": "",
          "type": "uint256"
        }
      ],
      "stateMutability": "view",
      "type": "function"
    },
    {
      "inputs": [],
      "name": "pause",
      "outputs": [],
      "stateMutability": "nonpayable",
      "type": "function"
    },
    {
      "inputs": [],
      "name": "paused",
      "outputs": [
        {
          "internalType": "bool",
          "name": "",
          "type": "bool"
        }
      ],
      "stateMutability": "view",
      "type": "function"
    },
    {
      "inputs": [
        {
          "internalType": "bytes32",
          "name": "role",
          "type": "bytes32"
        },
        {
          "internalType": "address",
          "name": "account",
          "type": "address"
        }
      ],
      "name": "renounceRole",
      "outputs": [],
      "stateMutability": "nonpayable",
      "type": "function"
    },
    {
      "inputs": [
        {
          "internalType": "bytes32",
          "name": "role",
          "type": "bytes32"
        },
        {
          "internalType": "address",
          "name": "account",
          "type": "address"
        }
      ],
      "name": "revokeRole",
      "outputs": [],
      "stateMutability": "nonpayable",
      "type": "function"
    },
    {
      "inputs": [
        {
          "internalType": "uint256",
          "name": "taskId",
          "type": "uint256"
        },
        {
          "internalType": "uint256",
          "name": "amount",
          "type": "uint256"
        }
      ],
      "name": "submitClaim",
      "outputs": [
        {
          "internalType": "uint256",
          "name": "",
          "type": "uint256"
        }
      ],
      "stateMutability": "nonpayable",
      "type": "function"
    },
    {
      "inputs": [
        {
          "internalType": "bytes4",
          "name": "interfaceId",
          "type": "bytes4"
        }
      ],
      "name": "supportsInterface",
      "outputs": [
        {
          "internalType": "bool",
          "name": "",
          "type": "bool"
        }
      ],
      "stateMutability": "view",
      "type": "function"
    },
    {
      "inputs": [
        {
          "internalType": "uint256",
          "name": "",
          "type": "uint256"
        }
      ],
      "name": "tasks",
      "outputs": [
        {
          "internalType": "address",
          "name": "creator",
          "type": "address"
        },
        {
          "internalType": "uint256",
          "name": "totalReward",
          "type": "uint256"
        },
        {
          "internalType": "uint256",
          "name": "remainingReward",
          "type": "uint256"
        },
        {
          "internalType": "bool",
          "name": "isActive",
          "type": "bool"
        }
      ],
      "stateMutability": "view",
      "type": "function"
    },
    {
      "inputs": [],
      "name": "unpause",
      "outputs": [],
      "stateMutability": "nonpayable",
      "type": "function"
    },
    {
      "inputs": [],
      "name": "usdtToken",
      "outputs": [
        {
          "internalType": "contract IERC20",
          "name": "",
          "type": "address"
        }
      ],
      "stateMutability": "view",
      "type": "function"
    },
    {
      "inputs": [
        {
          "internalType": "address",
          "name": "to",
          "type": "address"
        },
        {
          "internalType": "uint256",
          "name": "amount",
          "type": "uint256"
        }
      ],
      "name": "withdrawTokens",
      "outputs": [],
      "stateMutability": "nonpayable",
      "type": "function"
    }
  ],
  "transactionHash": "0xcf3b974b67b65cabb50fedd4c35485df961db436e23477f386383182c9072d2c",
  "args": [
    "0xaA8E23Fb1079EA71e0a56F48a2aA51851D8433D0",
    "0xB1CD9f3c65496ddD185F81d5E5b0BC9004535521"
  ],
  "numDeployments": 2,
  "solcInputHash": "ac7930b2f1490371b6ae9386068f7fc9",
  "bytecode": "0x60a06040523480156200001157600080fd5b506040516200183b3803806200183b83398101604081905262000034916200014e565b600180556002805460ff191690556001600160a01b0382166080526200005c60008262000090565b620000887fa49807205ce4d355092ef5a8a18f56e8913cf4a201fbe287825b095693c217758262000090565b505062000186565b6000828152602081815260408083206001600160a01b038516845290915290205460ff166200012d576000828152602081815260408083206001600160a01b03851684529091529020805460ff19166001179055620000ec3390565b6001600160a01b0316816001600160a01b0316837f2f8788117e7eff1d82e926ec794901d17c78024a50270940304540a733656f0d60405160405180910390a45b5050565b80516001600160a01b03811681146200014957600080fd5b919050565b600080604083850312156200016257600080fd5b6200016d8362000131565b91506200017d6020840162000131565b90509250929050565b60805161167d620001be60003960008181610353015281816104b601528181610595015281816107100152610e1e015261167d6000f3fe608060405234801561001057600080fd5b50600436106101375760003560e01c80638456cb59116100b8578063a217fddf1161007c578063a217fddf146102c5578063a888c2cd146102cd578063a98ad46c1461034e578063d547741f1461038d578063fc58b54a146103a0578063fdc3d8d7146103b357600080fd5b80638456cb591461021e5780638d97767214610226578063916750631461029657806391d14854146102a9578063a0021cf1146102bc57600080fd5b806336568abe116100ff57806336568abe146101d05780633f4ba83a146101e357806346e30135146101eb5780635c975abb146101fe57806375b238fc1461020957600080fd5b806301ffc9a71461013c57806306b091f914610164578063248a9ca3146101795780632f2ff15d146101aa57806331d66934146101bd575b600080fd5b61014f61014a366004611376565b6103bc565b60405190151581526020015b60405180910390f35b6101776101723660046113b7565b6103f3565b005b61019c6101873660046113e1565b60009081526020819052604090206001015490565b60405190815260200161015b565b6101776101b83660046113fa565b61066f565b61019c6101cb3660046113e1565b610694565b6101776101de3660046113fa565b61086f565b6101776108ed565b6101776101f93660046113e1565b610910565b60025460ff1661014f565b61019c60008051602061162883398151915281565b610177610a2a565b61026a6102343660046113e1565b600360208190526000918252604090912080546001820154600283015492909301546001600160a01b0390911692919060ff1684565b604080516001600160a01b0390951685526020850193909352918301521515606082015260800161015b565b61019c6102a4366004611426565b610a4a565b61014f6102b73660046113fa565b610bf7565b61019c60065481565b61019c600081565b6103186102db3660046113e1565b60046020526000908152604090208054600182015460028301546003909301546001600160a01b0390921692909160ff8082169161010090041685565b604080516001600160a01b039096168652602086019490945292840191909152151560608301521515608082015260a00161015b565b6103757f000000000000000000000000000000000000000000000000000000000000000081565b6040516001600160a01b03909116815260200161015b565b61017761039b3660046113fa565b610c20565b6101776103ae3660046113e1565b610c45565b61019c60055481565b60006001600160e01b03198216637965db0b60e01b14806103ed57506301ffc9a760e01b6001600160e01b03198316145b92915050565b60008051602061162883398151915261040b81610efc565b610413610f06565b6001600160a01b0383166104605760405162461bcd60e51b815260206004820152600f60248201526e496e76616c6964206164647265737360881b60448201526064015b60405180910390fd5b600082116104a15760405162461bcd60e51b815260206004820152600e60248201526d125b9d985b1a5908185b5bdd5b9d60921b6044820152606401610457565b6040516370a0823160e01b81523060048201527f00000000000000000000000000000000000000000000000000000000000000006001600160a01b0316906370a0823190602401602060405180830381865afa158015610505573d6000803e3d6000fd5b505050506040513d601f19601f820116820180604052508101906105299190611448565b82111561056f5760405162461bcd60e51b8152602060048201526014602482015273496e73756666696369656e742062616c616e636560601b6044820152606401610457565b60405163a9059cbb60e01b81526001600160a01b038481166004830152602482018490527f0000000000000000000000000000000000000000000000000000000000000000169063a9059cbb906044016020604051808303816000875af11580156105de573d6000803e3d6000fd5b505050506040513d601f19601f820116820180604052508101906106029190611461565b61061e5760405162461bcd60e51b815260040161045790611483565b826001600160a01b03167f6352c5382c4a4578e712449ca65e83cdb392d045dfcf1cad9615189db2da244b8360405161065991815260200190565b60405180910390a261066a60018055565b505050565b60008281526020819052604090206001015461068a81610efc565b61066a8383610f5f565b600061069e610fe3565b6106a6610f06565b600082116106ee5760405162461bcd60e51b8152602060048201526015602482015274125b9d985b1a59081c995dd85c9908185b5bdd5b9d605a1b6044820152606401610457565b6040516323b872dd60e01b8152336004820152306024820152604481018390527f00000000000000000000000000000000000000000000000000000000000000006001600160a01b0316906323b872dd906064016020604051808303816000875af1158015610761573d6000803e3d6000fd5b505050506040513d601f19601f820116820180604052508101906107859190611461565b6107a15760405162461bcd60e51b815260040161045790611483565b60058054600091826107b2836114c2565b90915550604080516080810182523380825260208083018881528385018981526001606086018181526000898152600380875290899020975188546001600160a01b0319166001600160a01b0390911617885593519187019190915590516002860155519301805460ff1916931515939093179092559151868152929350909183917f6cf53aa7292e664152c2ea948c3b3c95d4b05c36daeb2626d0293473c4a4a153910160405180910390a3905061086a60018055565b919050565b6001600160a01b03811633146108df5760405162461bcd60e51b815260206004820152602f60248201527f416363657373436f6e74726f6c3a2063616e206f6e6c792072656e6f756e636560448201526e103937b632b9903337b91039b2b63360891b6064820152608401610457565b6108e9828261102b565b5050565b60008051602061162883398151915261090581610efc565b61090d611090565b50565b60008051602061162883398151915261092881610efc565b60008281526004602052604090206003015460ff16156109835760405162461bcd60e51b815260206004820152601660248201527510db185a5b48185b1c9958591e48185c1c1c9bdd995960521b6044820152606401610457565b600082815260046020526040902060030154610100900460ff16156109e35760405162461bcd60e51b815260206004820152601660248201527510db185a5b48185b1c9958591e48195e1958dd5d195960521b6044820152606401610457565b600082815260046020526040808220600301805460ff191660011790555183917fd2d0ed0cccc8615643ade1eff3929a29ed8df75ebca85a3996e311c9b69e228991a25050565b600080516020611628833981519152610a4281610efc565b61090d6110e2565b6000610a54610fe3565b610a5c610f06565b6000838152600360208190526040909120015460ff16610ab05760405162461bcd60e51b815260206004820152600f60248201526e5461736b206e6f742061637469766560881b6044820152606401610457565b600083815260036020526040902060020154821115610b115760405162461bcd60e51b815260206004820152601d60248201527f496e73756666696369656e742072656d61696e696e67207265776172640000006044820152606401610457565b6006805460009182610b22836114c2565b909155506040805160a081018252338082526020808301898152838501898152600060608601818152608087018281528983526004865291889020965187546001600160a01b0319166001600160a01b039091161787559251600187015590516002860155905160039094018054915161ffff1990921694151561ff00191694909417610100911515919091021790925591518681529293509091869184917f3a30d1c4069e097873e77443df9683e8de5c7ba3674315b8670a0211e3130195910160405180910390a490506103ed60018055565b6000918252602082815260408084206001600160a01b0393909316845291905290205460ff1690565b600082815260208190526040902060010154610c3b81610efc565b61066a838361102b565b600080516020611628833981519152610c5d81610efc565b610c65610f06565b6000828152600460205260409020600381015460ff16610cbc5760405162461bcd60e51b815260206004820152601260248201527110db185a5b481b9bdd08185c1c1c9bdd995960721b6044820152606401610457565b6003810154610100900460ff1615610d0f5760405162461bcd60e51b815260206004820152601660248201527510db185a5b48185b1c9958591e48195e1958dd5d195960521b6044820152606401610457565b600181015460009081526003602081905260409091209081015460ff16610d6a5760405162461bcd60e51b815260206004820152600f60248201526e5461736b206e6f742061637469766560881b6044820152606401610457565b806002015482600201541115610dc25760405162461bcd60e51b815260206004820152601d60248201527f496e73756666696369656e742072656d61696e696e67207265776172640000006044820152606401610457565b8160020154816002016000828254610dda91906114db565b909155505060038201805461ff0019166101001790558154600283015460405163a9059cbb60e01b81526001600160a01b03928316600482015260248101919091527f00000000000000000000000000000000000000000000000000000000000000009091169063a9059cbb906044016020604051808303816000875af1158015610e69573d6000803e3d6000fd5b505050506040513d601f19601f82011682018060405250810190610e8d9190611461565b610ea95760405162461bcd60e51b815260040161045790611483565b815460028301546040519081526001600160a01b039091169085907f75eef6f906fb79d72532c01c18547c1d9a378995a73c4d1ef680889dd5e96e789060200160405180910390a350506108e960018055565b61090d813361111f565b600260015403610f585760405162461bcd60e51b815260206004820152601f60248201527f5265656e7472616e637947756172643a207265656e7472616e742063616c6c006044820152606401610457565b6002600155565b610f698282610bf7565b6108e9576000828152602081815260408083206001600160a01b03851684529091529020805460ff19166001179055610f9f3390565b6001600160a01b0316816001600160a01b0316837f2f8788117e7eff1d82e926ec794901d17c78024a50270940304540a733656f0d60405160405180910390a45050565b60025460ff16156110295760405162461bcd60e51b815260206004820152601060248201526f14185d5cd8589b194e881c185d5cd95960821b6044820152606401610457565b565b6110358282610bf7565b156108e9576000828152602081815260408083206001600160a01b0385168085529252808320805460ff1916905551339285917ff6391f5c32d9c69d2a47ea670b442974b53935d1edc7fd64eb21e047a839171b9190a45050565b611098611178565b6002805460ff191690557f5db9ee0a495bf2e6ff9c91a7834c1ba4fdd244a5e8aa4e537bd38aeae4b073aa335b6040516001600160a01b03909116815260200160405180910390a1565b6110ea610fe3565b6002805460ff191660011790557f62e78cea01bee320cd4e420270b5ea74000d11b0c9f74754ebdbfc544b05a2586110c53390565b6111298282610bf7565b6108e957611136816111c1565b6111418360206111d3565b604051602001611152929190611512565b60408051601f198184030181529082905262461bcd60e51b825261045791600401611587565b60025460ff166110295760405162461bcd60e51b815260206004820152601460248201527314185d5cd8589b194e881b9bdd081c185d5cd95960621b6044820152606401610457565b60606103ed6001600160a01b03831660145b606060006111e28360026115ba565b6111ed9060026115d1565b67ffffffffffffffff811115611205576112056115e4565b6040519080825280601f01601f19166020018201604052801561122f576020820181803683370190505b509050600360fc1b8160008151811061124a5761124a6115fa565b60200101906001600160f81b031916908160001a905350600f60fb1b81600181518110611279576112796115fa565b60200101906001600160f81b031916908160001a905350600061129d8460026115ba565b6112a89060016115d1565b90505b6001811115611320576f181899199a1a9b1b9c1cb0b131b232b360811b85600f16601081106112dc576112dc6115fa565b1a60f81b8282815181106112f2576112f26115fa565b60200101906001600160f81b031916908160001a90535060049490941c9361131981611610565b90506112ab565b50831561136f5760405162461bcd60e51b815260206004820181905260248201527f537472696e67733a20686578206c656e67746820696e73756666696369656e746044820152606401610457565b9392505050565b60006020828403121561138857600080fd5b81356001600160e01b03198116811461136f57600080fd5b80356001600160a01b038116811461086a57600080fd5b600080604083850312156113ca57600080fd5b6113d3836113a0565b946020939093013593505050565b6000602082840312156113f357600080fd5b5035919050565b6000806040838503121561140d57600080fd5b8235915061141d602084016113a0565b90509250929050565b6000806040838503121561143957600080fd5b50508035926020909101359150565b60006020828403121561145a57600080fd5b5051919050565b60006020828403121561147357600080fd5b8151801515811461136f57600080fd5b6020808252600f908201526e151c985b9cd9995c8819985a5b1959608a1b604082015260600190565b634e487b7160e01b600052601160045260246000fd5b6000600182016114d4576114d46114ac565b5060010190565b818103818111156103ed576103ed6114ac565b60005b838110156115095781810151838201526020016114f1565b50506000910152565b7f416363657373436f6e74726f6c3a206163636f756e742000000000000000000081526000835161154a8160178501602088016114ee565b7001034b99036b4b9b9b4b733903937b6329607d1b601791840191820152835161157b8160288401602088016114ee565b01602801949350505050565b60208152600082518060208401526115a68160408501602087016114ee565b601f01601f19169190910160400192915050565b80820281158282048414176103ed576103ed6114ac565b808201808211156103ed576103ed6114ac565b634e487b7160e01b600052604160045260246000fd5b634e487b7160e01b600052603260045260246000fd5b60008161161f5761161f6114ac565b50600019019056fea49807205ce4d355092ef5a8a18f56e8913cf4a201fbe287825b095693c21775a264697066735822122005b41b2b529a472beaff420d9894d63039069e7bf6d68733f61ce0e39ffa003364736f6c63430008110033",
  "devdoc": {
    "kind": "dev",
    "methods": {
      "getRoleAdmin(bytes32)": {
        "details": "Returns the admin role that controls `role`. See {grantRole} and {revokeRole}. To change a role's admin, use {_setRoleAdmin}."
      },
      "grantRole(bytes32,address)": {
        "details": "Grants `role` to `account`. If `account` had not been already granted `role`, emits a {RoleGranted} event. Requirements: - the caller must have ``role``'s admin role. May emit a {RoleGranted} event."
      },
      "hasRole(bytes32,address)": {
        "details": "Returns `true` if `account` has been granted `role`."
      },
      "paused()": {
        "details": "Returns true if the contract is paused, and false otherwise."
      },
      "renounceRole(bytes32,address)": {
        "details": "Revokes `role` from the calling account. Roles are often managed via {grantRole} and {revokeRole}: this function's purpose is to provide a mechanism for accounts to lose their privileges if they are compromised (such as when a trusted device is misplaced). If the calling account had been revoked `role`, emits a {RoleRevoked} event. Requirements: - the caller must be `account`. May emit a {RoleRevoked} event."
      },
      "revokeRole(bytes32,address)": {
        "details": "Revokes `role` from `account`. If `account` had been granted `role`, emits a {RoleRevoked} event. Requirements: - the caller must have ``role``'s admin role. May emit a {RoleRevoked} event."
      },
      "supportsInterface(bytes4)": {
        "details": "See {IERC165-supportsInterface}."
      }
    },
    "version": 1
  },
  "userdoc": {
    "kind": "user",
    "methods": {},
    "version": 1
  },
  "storageLayout": {
    "storage": [
      {
        "astId": 24,
        "contract": "contracts/TaskReward.sol:TaskReward",
        "label": "_roles",
        "offset": 0,
        "slot": "0",
        "type": "t_mapping(t_bytes32,t_struct(RoleData)19_storage)"
      },
      {
        "astId": 507,
        "contract": "contracts/TaskReward.sol:TaskReward",
        "label": "_status",
        "offset": 0,
        "slot": "1",
        "type": "t_uint256"
      },
      {
        "astId": 406,
        "contract": "contracts/TaskReward.sol:TaskReward",
        "label": "_paused",
        "offset": 0,
        "slot": "2",
        "type": "t_bool"
      },
      {
        "astId": 1950,
        "contract": "contracts/TaskReward.sol:TaskReward",
        "label": "tasks",
        "offset": 0,
        "slot": "3",
        "type": "t_mapping(t_uint256,t_struct(Task)1934_storage)"
      },
      {
        "astId": 1955,
        "contract": "contracts/TaskReward.sol:TaskReward",
        "label": "claims",
        "offset": 0,
        "slot": "4",
        "type": "t_mapping(t_uint256,t_struct(Claim)1945_storage)"
      },
      {
        "astId": 1957,
        "contract": "contracts/TaskReward.sol:TaskReward",
        "label": "nextTaskId",
        "offset": 0,
        "slot": "5",
        "type": "t_uint256"
      },
      {
        "astId": 1959,
        "contract": "contracts/TaskReward.sol:TaskReward",
        "label": "nextClaimId",
        "offset": 0,
        "slot": "6",
        "type": "t_uint256"
      }
    ],
    "types": {
      "t_address": {
        "encoding": "inplace",
        "label": "address",
        "numberOfBytes": "20"
      },
      "t_bool": {
        "encoding": "inplace",
        "label": "bool",
        "numberOfBytes": "1"
      },
      "t_bytes32": {
        "encoding": "inplace",
        "label": "bytes32",
        "numberOfBytes": "32"
      },
      "t_mapping(t_address,t_bool)": {
        "encoding": "mapping",
        "key": "t_address",
        "label": "mapping(address => bool)",
        "numberOfBytes": "32",
        "value": "t_bool"
      },
      "t_mapping(t_bytes32,t_struct(RoleData)19_storage)": {
        "encoding": "mapping",
        "key": "t_bytes32",
        "label": "mapping(bytes32 => struct AccessControl.RoleData)",
        "numberOfBytes": "32",
        "value": "t_struct(RoleData)19_storage"
      },
      "t_mapping(t_uint256,t_struct(Claim)1945_storage)": {
        "encoding": "mapping",
        "key": "t_uint256",
        "label": "mapping(uint256 => struct TaskReward.Claim)",
        "numberOfBytes": "32",
        "value": "t_struct(Claim)1945_storage"
      },
      "t_mapping(t_uint256,t_struct(Task)1934_storage)": {
        "encoding": "mapping",
        "key": "t_uint256",
        "label": "mapping(uint256 => struct TaskReward.Task)",
        "numberOfBytes": "32",
        "value": "t_struct(Task)1934_storage"
      },
      "t_struct(Claim)1945_storage": {
        "encoding": "inplace",
        "label": "struct TaskReward.Claim",
        "members": [
          {
            "astId": 1936,
            "contract": "contracts/TaskReward.sol:TaskReward",
            "label": "user",
            "offset": 0,
            "slot": "0",
            "type": "t_address"
          },
          {
            "astId": 1938,
            "contract": "contracts/TaskReward.sol:TaskReward",
            "label": "taskId",
            "offset": 0,
            "slot": "1",
            "type": "t_uint256"
          },
          {
            "astId": 1940,
            "contract": "contracts/TaskReward.sol:TaskReward",
            "label": "amount",
            "offset": 0,
            "slot": "2",
            "type": "t_uint256"
          },
          {
            "astId": 1942,
            "contract": "contracts/TaskReward.sol:TaskReward",
            "label": "approved",
            "offset": 0,
            "slot": "3",
            "type": "t_bool"
          },
          {
            "astId": 1944,
            "contract": "contracts/TaskReward.sol:TaskReward",
            "label": "executed",
            "offset": 1,
            "slot": "3",
            "type": "t_bool"
          }
        ],
        "numberOfBytes": "128"
      },
      "t_struct(RoleData)19_storage": {
        "encoding": "inplace",
        "label": "struct AccessControl.RoleData",
        "members": [
          {
            "astId": 16,
            "contract": "contracts/TaskReward.sol:TaskReward",
            "label": "members",
            "offset": 0,
            "slot": "0",
            "type": "t_mapping(t_address,t_bool)"
          },
          {
            "astId": 18,
            "contract": "contracts/TaskReward.sol:TaskReward",
            "label": "adminRole",
            "offset": 0,
            "slot": "1",
            "type": "t_bytes32"
          }
        ],
        "numberOfBytes": "64"
      },
      "t_struct(Task)1934_storage": {
        "encoding": "inplace",
        "label": "struct TaskReward.Task",
        "members": [
          {
            "astId": 1927,
            "contract": "contracts/TaskReward.sol:TaskReward",
            "label": "creator",
            "offset": 0,
            "slot": "0",
            "type": "t_address"
          },
          {
            "astId": 1929,
            "contract": "contracts/TaskReward.sol:TaskReward",
            "label": "totalReward",
            "offset": 0,
            "slot": "1",
            "type": "t_uint256"
          },
          {
            "astId": 1931,
            "contract": "contracts/TaskReward.sol:TaskReward",
            "label": "remainingReward",
            "offset": 0,
            "slot": "2",
            "type": "t_uint256"
          },
          {
            "astId": 1933,
            "contract": "contracts/TaskReward.sol:TaskReward",
            "label": "isActive",
            "offset": 0,
            "slot": "3",
            "type": "t_bool"
          }
        ],
        "numberOfBytes": "128"
      },
      "t_uint256": {
        "encoding": "inplace",
        "label": "uint256",
        "numberOfBytes": "32"
      }
    }
  }
}